{
  "_format": "hh-sol-artifact-1",
  "contractName": "ProofOfMeet",
  "sourceName": "contracts/ProofOfMeet.sol",
  "abi": [
    {
      "inputs": [],
      "stateMutability": "nonpayable",
      "type": "constructor"
    },
    {
      "anonymous": false,
      "inputs": [
        {
          "indexed": true,
          "internalType": "address",
          "name": "owner",
          "type": "address"
        },
        {
          "indexed": true,
          "internalType": "address",
          "name": "approved",
          "type": "address"
        },
        {
          "indexed": true,
          "internalType": "uint256",
          "name": "tokenId",
          "type": "uint256"
        }
      ],
      "name": "Approval",
      "type": "event"
    },
    {
      "anonymous": false,
      "inputs": [
        {
          "indexed": true,
          "internalType": "address",
          "name": "owner",
          "type": "address"
        },
        {
          "indexed": true,
          "internalType": "address",
          "name": "operator",
          "type": "address"
        },
        {
          "indexed": false,
          "internalType": "bool",
          "name": "approved",
          "type": "bool"
        }
      ],
      "name": "ApprovalForAll",
      "type": "event"
    },
    {
      "anonymous": false,
      "inputs": [
        {
          "indexed": true,
          "internalType": "address",
          "name": "previousOwner",
          "type": "address"
        },
        {
          "indexed": true,
          "internalType": "address",
          "name": "newOwner",
          "type": "address"
        }
      ],
      "name": "OwnershipTransferred",
      "type": "event"
    },
    {
      "anonymous": false,
      "inputs": [
        {
          "indexed": true,
          "internalType": "address",
          "name": "from",
          "type": "address"
        },
        {
          "indexed": true,
          "internalType": "address",
          "name": "to",
          "type": "address"
        },
        {
          "indexed": true,
          "internalType": "uint256",
          "name": "tokenId",
          "type": "uint256"
        }
      ],
      "name": "Transfer",
      "type": "event"
    },
    {
      "stateMutability": "payable",
      "type": "fallback"
    },
    {
      "inputs": [],
      "name": "_tokenIdCounter",
      "outputs": [
        {
          "internalType": "uint256",
          "name": "_value",
          "type": "uint256"
        }
      ],
      "stateMutability": "view",
      "type": "function"
    },
    {
      "inputs": [
        {
          "internalType": "address",
          "name": "to",
          "type": "address"
        },
        {
          "internalType": "uint256",
          "name": "tokenId",
          "type": "uint256"
        }
      ],
      "name": "approve",
      "outputs": [],
      "stateMutability": "nonpayable",
      "type": "function"
    },
    {
      "inputs": [
        {
          "internalType": "address",
          "name": "owner",
          "type": "address"
        }
      ],
      "name": "balanceOf",
      "outputs": [
        {
          "internalType": "uint256",
          "name": "",
          "type": "uint256"
        }
      ],
      "stateMutability": "view",
      "type": "function"
    },
    {
      "inputs": [
        {
          "internalType": "uint256",
          "name": "tokenId",
          "type": "uint256"
        }
      ],
      "name": "getApproved",
      "outputs": [
        {
          "internalType": "address",
          "name": "",
          "type": "address"
        }
      ],
      "stateMutability": "view",
      "type": "function"
    },
    {
      "inputs": [
        {
          "internalType": "address",
          "name": "owner",
          "type": "address"
        },
        {
          "internalType": "address",
          "name": "operator",
          "type": "address"
        }
      ],
      "name": "isApprovedForAll",
      "outputs": [
        {
          "internalType": "bool",
          "name": "",
          "type": "bool"
        }
      ],
      "stateMutability": "view",
      "type": "function"
    },
    {
      "inputs": [],
      "name": "name",
      "outputs": [
        {
          "internalType": "string",
          "name": "",
          "type": "string"
        }
      ],
      "stateMutability": "view",
      "type": "function"
    },
    {
      "inputs": [],
      "name": "owner",
      "outputs": [
        {
          "internalType": "address",
          "name": "",
          "type": "address"
        }
      ],
      "stateMutability": "view",
      "type": "function"
    },
    {
      "inputs": [
        {
          "internalType": "uint256",
          "name": "tokenId",
          "type": "uint256"
        }
      ],
      "name": "ownerOf",
      "outputs": [
        {
          "internalType": "address",
          "name": "",
          "type": "address"
        }
      ],
      "stateMutability": "view",
      "type": "function"
    },
    {
      "inputs": [
        {
          "internalType": "uint256",
          "name": "",
          "type": "uint256"
        }
      ],
      "name": "poms",
      "outputs": [
        {
          "internalType": "uint256",
          "name": "pomId",
          "type": "uint256"
        },
        {
          "internalType": "string",
          "name": "name",
          "type": "string"
        },
        {
          "internalType": "string",
          "name": "imageURL",
          "type": "string"
        }
      ],
      "stateMutability": "view",
      "type": "function"
    },
    {
      "inputs": [],
      "name": "renounceOwnership",
      "outputs": [],
      "stateMutability": "nonpayable",
      "type": "function"
    },
    {
      "inputs": [
        {
          "internalType": "uint8[]",
          "name": "sigV",
          "type": "uint8[]"
        },
        {
          "internalType": "bytes32[]",
          "name": "sigR",
          "type": "bytes32[]"
        },
        {
          "internalType": "bytes32[]",
          "name": "sigS",
          "type": "bytes32[]"
        },
        {
          "internalType": "string",
          "name": "uri",
          "type": "string"
        },
        {
          "internalType": "uint256",
          "name": "nonce",
          "type": "uint256"
        }
      ],
      "name": "safeMultiMint",
      "outputs": [],
      "stateMutability": "nonpayable",
      "type": "function"
    },
    {
      "inputs": [
        {
          "internalType": "address",
          "name": "from",
          "type": "address"
        },
        {
          "internalType": "address",
          "name": "to",
          "type": "address"
        },
        {
          "internalType": "uint256",
          "name": "tokenId",
          "type": "uint256"
        }
      ],
      "name": "safeTransferFrom",
      "outputs": [],
      "stateMutability": "nonpayable",
      "type": "function"
    },
    {
      "inputs": [
        {
          "internalType": "address",
          "name": "from",
          "type": "address"
        },
        {
          "internalType": "address",
          "name": "to",
          "type": "address"
        },
        {
          "internalType": "uint256",
          "name": "tokenId",
          "type": "uint256"
        },
        {
          "internalType": "bytes",
          "name": "data",
          "type": "bytes"
        }
      ],
      "name": "safeTransferFrom",
      "outputs": [],
      "stateMutability": "nonpayable",
      "type": "function"
    },
    {
      "inputs": [
        {
          "internalType": "address",
          "name": "operator",
          "type": "address"
        },
        {
          "internalType": "bool",
          "name": "approved",
          "type": "bool"
        }
      ],
      "name": "setApprovalForAll",
      "outputs": [],
      "stateMutability": "nonpayable",
      "type": "function"
    },
    {
      "inputs": [
        {
          "internalType": "bytes4",
          "name": "interfaceId",
          "type": "bytes4"
        }
      ],
      "name": "supportsInterface",
      "outputs": [
        {
          "internalType": "bool",
          "name": "",
          "type": "bool"
        }
      ],
      "stateMutability": "view",
      "type": "function"
    },
    {
      "inputs": [],
      "name": "symbol",
      "outputs": [
        {
          "internalType": "string",
          "name": "",
          "type": "string"
        }
      ],
      "stateMutability": "view",
      "type": "function"
    },
    {
      "inputs": [
        {
          "internalType": "uint256",
          "name": "index",
          "type": "uint256"
        }
      ],
      "name": "tokenByIndex",
      "outputs": [
        {
          "internalType": "uint256",
          "name": "",
          "type": "uint256"
        }
      ],
      "stateMutability": "view",
      "type": "function"
    },
    {
      "inputs": [
        {
          "internalType": "uint256",
          "name": "",
          "type": "uint256"
        }
      ],
      "name": "tokenIdToPomId",
      "outputs": [
        {
          "internalType": "uint256",
          "name": "",
          "type": "uint256"
        }
      ],
      "stateMutability": "view",
      "type": "function"
    },
    {
      "inputs": [
        {
          "internalType": "address",
          "name": "owner",
          "type": "address"
        },
        {
          "internalType": "uint256",
          "name": "index",
          "type": "uint256"
        }
      ],
      "name": "tokenOfOwnerByIndex",
      "outputs": [
        {
          "internalType": "uint256",
          "name": "",
          "type": "uint256"
        }
      ],
      "stateMutability": "view",
      "type": "function"
    },
    {
      "inputs": [
        {
          "internalType": "uint256",
          "name": "tokenId",
          "type": "uint256"
        }
      ],
      "name": "tokenURI",
      "outputs": [
        {
          "internalType": "string",
          "name": "",
          "type": "string"
        }
      ],
      "stateMutability": "view",
      "type": "function"
    },
    {
      "inputs": [],
      "name": "totalSupply",
      "outputs": [
        {
          "internalType": "uint256",
          "name": "",
          "type": "uint256"
        }
      ],
      "stateMutability": "view",
      "type": "function"
    },
    {
      "inputs": [
        {
          "internalType": "address",
          "name": "from",
          "type": "address"
        },
        {
          "internalType": "address",
          "name": "to",
          "type": "address"
        },
        {
          "internalType": "uint256",
          "name": "tokenId",
          "type": "uint256"
        }
      ],
      "name": "transferFrom",
      "outputs": [],
      "stateMutability": "nonpayable",
      "type": "function"
    },
    {
      "inputs": [
        {
          "internalType": "address",
          "name": "newOwner",
          "type": "address"
        }
      ],
      "name": "transferOwnership",
      "outputs": [],
      "stateMutability": "nonpayable",
      "type": "function"
    },
    {
      "stateMutability": "payable",
      "type": "receive"
    }
  ],
  "bytecode": "0x60806040526000600d553480156200001657600080fd5b506040518060400160405280600b81526020017f50726f6f664f664d6565740000000000000000000000000000000000000000008152506040518060400160405280600381526020017f506f4d000000000000000000000000000000000000000000000000000000000081525081600090805190602001906200009b92919062000276565b508060019080519060200190620000b492919062000276565b505050620000d7620000cb620001a860201b60201c565b620001b060201b60201c565b60004690507fd87cd6ef79d4e2b95e15ce8abf732db51ec771f1ca2edccf22a46c729ac5647260001b7febee521eae932390d0dbe84467e87ed73f5d224ec6e2324c0689cdc44d1aaf8560001b7fc89efdaa54c0f20c7adf612882df0950f5a951637e0307cdcb4c672f298b8bc660001b83307f251543af6a222378665a76fe38dbceae4871a070b7fdaf5c6c30cf758dc33cc060001b604051602001620001859695949392919062000359565b604051602081830303815290604052805190602001206012819055505062000487565b600033905090565b6000600b60009054906101000a900473ffffffffffffffffffffffffffffffffffffffff16905081600b60006101000a81548173ffffffffffffffffffffffffffffffffffffffff021916908373ffffffffffffffffffffffffffffffffffffffff1602179055508173ffffffffffffffffffffffffffffffffffffffff168173ffffffffffffffffffffffffffffffffffffffff167f8be0079c531659141344cd1fd0a4f28419497f9722a3daafe3b4186f6b6457e060405160405180910390a35050565b828054620002849062000422565b90600052602060002090601f016020900481019282620002a85760008555620002f4565b82601f10620002c357805160ff1916838001178555620002f4565b82800160010185558215620002f4579182015b82811115620002f3578251825591602001919060010190620002d6565b5b50905062000303919062000307565b5090565b5b808211156200032257600081600090555060010162000308565b5090565b6200033181620003c6565b82525050565b6200034281620003fa565b82525050565b6200035381620003f0565b82525050565b600060c08201905062000370600083018962000326565b6200037f602083018862000326565b6200038e604083018762000326565b6200039d606083018662000348565b620003ac608083018562000337565b620003bb60a083018462000326565b979650505050505050565b6000819050919050565b600073ffffffffffffffffffffffffffffffffffffffff82169050919050565b6000819050919050565b600062000407826200040e565b9050919050565b60006200041b82620003d0565b9050919050565b600060028204905060018216806200043b57607f821691505b6020821081141562000452576200045162000458565b5b50919050565b7f4e487b7100000000000000000000000000000000000000000000000000000000600052602260045260246000fd5b6142e980620004976000396000f3fe6080604052600436106101445760003560e01c80636352211e116100b6578063a22cb4651161006f578063a22cb4651461048c578063b88d4fde146104b5578063c325a6b0146104de578063c87b56dd1461051b578063e985e9c514610558578063f2fde38b146105955761014b565b80636352211e1461037a57806370a08231146103b7578063715018a6146103f457806384c4bd4b1461040b5780638da5cb5b1461043657806395d89b41146104615761014b565b806318160ddd1161010857806318160ddd1461025a5780631eaefe291461028557806323b872dd146102ae5780632f745c59146102d757806342842e0e146103145780634f6ccce71461033d5761014b565b806301ffc9a71461014d5780630402746f1461018a57806306fdde03146101c9578063081812fc146101f4578063095ea7b3146102315761014b565b3661014b57005b005b34801561015957600080fd5b50610174600480360381019061016f9190612ff0565b6105be565b6040516101819190613554565b60405180910390f35b34801561019657600080fd5b506101b160048036038101906101ac9190613042565b6105d0565b6040516101c09392919061381a565b60405180910390f35b3480156101d557600080fd5b506101de61070a565b6040516101eb91906135dd565b60405180910390f35b34801561020057600080fd5b5061021b60048036038101906102169190613042565b61079c565b60405161022891906134ed565b60405180910390f35b34801561023d57600080fd5b5061025860048036038101906102539190612edd565b6107e2565b005b34801561026657600080fd5b5061026f6108fa565b60405161027c91906137ff565b60405180910390f35b34801561029157600080fd5b506102ac60048036038101906102a79190612f19565b610907565b005b3480156102ba57600080fd5b506102d560048036038101906102d09190612dd7565b610c1b565b005b3480156102e357600080fd5b506102fe60048036038101906102f99190612edd565b610c7b565b60405161030b91906137ff565b60405180910390f35b34801561032057600080fd5b5061033b60048036038101906103369190612dd7565b610d20565b005b34801561034957600080fd5b50610364600480360381019061035f9190613042565b610d40565b60405161037191906137ff565b60405180910390f35b34801561038657600080fd5b506103a1600480360381019061039c9190613042565b610dd7565b6040516103ae91906134ed565b60405180910390f35b3480156103c357600080fd5b506103de60048036038101906103d99190612d72565b610e89565b6040516103eb91906137ff565b60405180910390f35b34801561040057600080fd5b50610409610f41565b005b34801561041757600080fd5b50610420610f55565b60405161042d91906137ff565b60405180910390f35b34801561044257600080fd5b5061044b610f61565b60405161045891906134ed565b60405180910390f35b34801561046d57600080fd5b50610476610f8b565b60405161048391906135dd565b60405180910390f35b34801561049857600080fd5b506104b360048036038101906104ae9190612ea1565b61101d565b005b3480156104c157600080fd5b506104dc60048036038101906104d79190612e26565b611033565b005b3480156104ea57600080fd5b5061050560048036038101906105009190613042565b611095565b60405161051291906137ff565b60405180910390f35b34801561052757600080fd5b50610542600480360381019061053d9190613042565b6110ad565b60405161054f91906135dd565b60405180910390f35b34801561056457600080fd5b5061057f600480360381019061057a9190612d9b565b611271565b60405161058c9190613554565b60405180910390f35b3480156105a157600080fd5b506105bc60048036038101906105b79190612d72565b611305565b005b60006105c982611389565b9050919050565b600f6020528060005260406000206000915090508060000154908060010180546105f990613b8d565b80601f016020809104026020016040519081016040528092919081815260200182805461062590613b8d565b80156106725780601f1061064757610100808354040283529160200191610672565b820191906000526020600020905b81548152906001019060200180831161065557829003601f168201915b50505050509080600201805461068790613b8d565b80601f01602080910402602001604051908101604052809291908181526020018280546106b390613b8d565b80156107005780601f106106d557610100808354040283529160200191610700565b820191906000526020600020905b8154815290600101906020018083116106e357829003601f168201915b5050505050905083565b60606000805461071990613b8d565b80601f016020809104026020016040519081016040528092919081815260200182805461074590613b8d565b80156107925780601f1061076757610100808354040283529160200191610792565b820191906000526020600020905b81548152906001019060200180831161077557829003601f168201915b5050505050905090565b60006107a782611403565b6004600083815260200190815260200160002060009054906101000a900473ffffffffffffffffffffffffffffffffffffffff169050919050565b60006107ed82610dd7565b90508073ffffffffffffffffffffffffffffffffffffffff168373ffffffffffffffffffffffffffffffffffffffff16141561085e576040517f08c379a00000000000000000000000000000000000000000000000000000000081526004016108559061379f565b60405180910390fd5b8073ffffffffffffffffffffffffffffffffffffffff1661087d61144e565b73ffffffffffffffffffffffffffffffffffffffff1614806108ac57506108ab816108a661144e565b611271565b5b6108eb576040517f08c379a00000000000000000000000000000000000000000000000000000000081526004016108e29061371f565b60405180910390fd5b6108f58383611456565b505050565b6000600880549050905090565b82518451148015610919575084518451145b61092257600080fd5b6010600082815260200190815260200160002060009054906101000a900460ff161561094d57600080fd5b60007f0a10f69f3a9a030116013b2a75915b26ec4ae208dd054217644db4a9ca7c451f60001b8260405160200161098592919061356f565b6040516020818303038152906040528051906020012090506000601254826040516020016109b4929190613494565b60405160208183030381529060405280519060200120905060005b8651811015610b3f5760006001838a8481518110610a16577f4e487b7100000000000000000000000000000000000000000000000000000000600052603260045260246000fd5b60200260200101518a8581518110610a57577f4e487b7100000000000000000000000000000000000000000000000000000000600052603260045260246000fd5b60200260200101518a8681518110610a98577f4e487b7100000000000000000000000000000000000000000000000000000000600052603260045260246000fd5b602002602001015160405160008152602001604052604051610abd9493929190613598565b6020604051602081039080840390855afa158015610adf573d6000803e3d6000fd5b505050602060405103519050610afe81610af9600c61150f565b61151d565b600d54600e6000610b0f600c61150f565b815260200190815260200160002081905550610b2b600c61153b565b508080610b3790613bf0565b9150506109cf565b5060016010600085815260200190815260200160002060006101000a81548160ff0219169083151502179055506040518060600160405280600d548152602001610b9360088661155190919063ffffffff16565b815260200185815250600f6000600d548152602001908152602001600020600082015181600001556020820151816001019080519060200190610bd7929190612a40565b506040820151816002019080519060200190610bf4929190612a40565b509050506001600d6000828254610c0b9190613981565b9250508190555050505050505050565b610c2c610c2661144e565b8261184b565b610c6b576040517f08c379a0000000000000000000000000000000000000000000000000000000008152600401610c62906137df565b60405180910390fd5b610c768383836118e0565b505050565b6000610c8683610e89565b8210610cc7576040517f08c379a0000000000000000000000000000000000000000000000000000000008152600401610cbe9061361f565b60405180910390fd5b600660008473ffffffffffffffffffffffffffffffffffffffff1673ffffffffffffffffffffffffffffffffffffffff168152602001908152602001600020600083815260200190815260200160002054905092915050565b610d3b83838360405180602001604052806000815250611033565b505050565b6000610d4a6108fa565b8210610d8b576040517f08c379a0000000000000000000000000000000000000000000000000000000008152600401610d82906137bf565b60405180910390fd5b60088281548110610dc5577f4e487b7100000000000000000000000000000000000000000000000000000000600052603260045260246000fd5b90600052602060002001549050919050565b6000806002600084815260200190815260200160002060009054906101000a900473ffffffffffffffffffffffffffffffffffffffff169050600073ffffffffffffffffffffffffffffffffffffffff168173ffffffffffffffffffffffffffffffffffffffff161415610e80576040517f08c379a0000000000000000000000000000000000000000000000000000000008152600401610e779061377f565b60405180910390fd5b80915050919050565b60008073ffffffffffffffffffffffffffffffffffffffff168273ffffffffffffffffffffffffffffffffffffffff161415610efa576040517f08c379a0000000000000000000000000000000000000000000000000000000008152600401610ef1906136ff565b60405180910390fd5b600360008373ffffffffffffffffffffffffffffffffffffffff1673ffffffffffffffffffffffffffffffffffffffff168152602001908152602001600020549050919050565b610f49611b47565b610f536000611bc5565b565b600c8060000154905081565b6000600b60009054906101000a900473ffffffffffffffffffffffffffffffffffffffff16905090565b606060018054610f9a90613b8d565b80601f0160208091040260200160405190810160405280929190818152602001828054610fc690613b8d565b80156110135780601f10610fe857610100808354040283529160200191611013565b820191906000526020600020905b815481529060010190602001808311610ff657829003601f168201915b5050505050905090565b61102f61102861144e565b8383611c8b565b5050565b61104461103e61144e565b8361184b565b611083576040517f08c379a000000000000000000000000000000000000000000000000000000000815260040161107a906137df565b60405180910390fd5b61108f84848484611df8565b50505050565b600e6020528060005260406000206000915090505481565b60606000600e60008481526020019081526020016000205490506000600f60008381526020019081526020016000206040518060600160405290816000820154815260200160018201805461110190613b8d565b80601f016020809104026020016040519081016040528092919081815260200182805461112d90613b8d565b801561117a5780601f1061114f5761010080835404028352916020019161117a565b820191906000526020600020905b81548152906001019060200180831161115d57829003601f168201915b5050505050815260200160028201805461119390613b8d565b80601f01602080910402602001604051908101604052809291908181526020018280546111bf90613b8d565b801561120c5780601f106111e15761010080835404028352916020019161120c565b820191906000526020600020905b8154815290600101906020018083116111ef57829003601f168201915b50505050508152505090506112498160200151826040015160405160200161123592919061344f565b604051602081830303815290604052611e54565b60405160200161125991906134cb565b60405160208183030381529060405292505050919050565b6000600560008473ffffffffffffffffffffffffffffffffffffffff1673ffffffffffffffffffffffffffffffffffffffff16815260200190815260200160002060008373ffffffffffffffffffffffffffffffffffffffff1673ffffffffffffffffffffffffffffffffffffffff16815260200190815260200160002060009054906101000a900460ff16905092915050565b61130d611b47565b600073ffffffffffffffffffffffffffffffffffffffff168173ffffffffffffffffffffffffffffffffffffffff16141561137d576040517f08c379a00000000000000000000000000000000000000000000000000000000081526004016113749061365f565b60405180910390fd5b61138681611bc5565b50565b60007f780e9d63000000000000000000000000000000000000000000000000000000007bffffffffffffffffffffffffffffffffffffffffffffffffffffffff1916827bffffffffffffffffffffffffffffffffffffffffffffffffffffffff191614806113fc57506113fb82611ff3565b5b9050919050565b61140c816120d5565b61144b576040517f08c379a00000000000000000000000000000000000000000000000000000000081526004016114429061377f565b60405180910390fd5b50565b600033905090565b816004600083815260200190815260200160002060006101000a81548173ffffffffffffffffffffffffffffffffffffffff021916908373ffffffffffffffffffffffffffffffffffffffff160217905550808273ffffffffffffffffffffffffffffffffffffffff166114c983610dd7565b73ffffffffffffffffffffffffffffffffffffffff167f8c5be1e5ebec7d5bd14f71427d1e84f3dd0314c0f7b2291e5b200ac8c7c3b92560405160405180910390a45050565b600081600001549050919050565b611537828260405180602001604052806000815250612141565b5050565b6001816000016000828254019250508190555050565b6060600060028360026115649190613a08565b61156e9190613981565b67ffffffffffffffff8111156115ad577f4e487b7100000000000000000000000000000000000000000000000000000000600052604160045260246000fd5b6040519080825280601f01601f1916602001820160405280156115df5781602001600182028036833780820191505090505b5090507f30000000000000000000000000000000000000000000000000000000000000008160008151811061163d577f4e487b7100000000000000000000000000000000000000000000000000000000600052603260045260246000fd5b60200101907effffffffffffffffffffffffffffffffffffffffffffffffffffffffffffff1916908160001a9053507f7800000000000000000000000000000000000000000000000000000000000000816001815181106116c7577f4e487b7100000000000000000000000000000000000000000000000000000000600052603260045260246000fd5b60200101907effffffffffffffffffffffffffffffffffffffffffffffffffffffffffffff1916908160001a905350600060018460026117079190613a08565b6117119190613981565b90505b60018111156117fd577f3031323334353637383961626364656600000000000000000000000000000000600f861660108110611779577f4e487b7100000000000000000000000000000000000000000000000000000000600052603260045260246000fd5b1a60f81b8282815181106117b6577f4e487b7100000000000000000000000000000000000000000000000000000000600052603260045260246000fd5b60200101907effffffffffffffffffffffffffffffffffffffffffffffffffffffffffffff1916908160001a905350600485901c9450806117f690613b63565b9050611714565b5060008414611841576040517f08c379a0000000000000000000000000000000000000000000000000000000008152600401611838906135ff565b60405180910390fd5b8091505092915050565b60008061185783610dd7565b90508073ffffffffffffffffffffffffffffffffffffffff168473ffffffffffffffffffffffffffffffffffffffff16148061189957506118988185611271565b5b806118d757508373ffffffffffffffffffffffffffffffffffffffff166118bf8461079c565b73ffffffffffffffffffffffffffffffffffffffff16145b91505092915050565b8273ffffffffffffffffffffffffffffffffffffffff1661190082610dd7565b73ffffffffffffffffffffffffffffffffffffffff1614611956576040517f08c379a000000000000000000000000000000000000000000000000000000000815260040161194d9061367f565b60405180910390fd5b600073ffffffffffffffffffffffffffffffffffffffff168273ffffffffffffffffffffffffffffffffffffffff1614156119c6576040517f08c379a00000000000000000000000000000000000000000000000000000000081526004016119bd906136bf565b60405180910390fd5b6119d183838361219c565b6119dc600082611456565b6001600360008573ffffffffffffffffffffffffffffffffffffffff1673ffffffffffffffffffffffffffffffffffffffff1681526020019081526020016000206000828254611a2c9190613a62565b925050819055506001600360008473ffffffffffffffffffffffffffffffffffffffff1673ffffffffffffffffffffffffffffffffffffffff1681526020019081526020016000206000828254611a839190613981565b92505081905550816002600083815260200190815260200160002060006101000a81548173ffffffffffffffffffffffffffffffffffffffff021916908373ffffffffffffffffffffffffffffffffffffffff160217905550808273ffffffffffffffffffffffffffffffffffffffff168473ffffffffffffffffffffffffffffffffffffffff167fddf252ad1be2c89b69c2b068fc378daa952ba7f163c4a11628f55a4df523b3ef60405160405180910390a4611b428383836121ac565b505050565b611b4f61144e565b73ffffffffffffffffffffffffffffffffffffffff16611b6d610f61565b73ffffffffffffffffffffffffffffffffffffffff1614611bc3576040517f08c379a0000000000000000000000000000000000000000000000000000000008152600401611bba9061375f565b60405180910390fd5b565b6000600b60009054906101000a900473ffffffffffffffffffffffffffffffffffffffff16905081600b60006101000a81548173ffffffffffffffffffffffffffffffffffffffff021916908373ffffffffffffffffffffffffffffffffffffffff1602179055508173ffffffffffffffffffffffffffffffffffffffff168173ffffffffffffffffffffffffffffffffffffffff167f8be0079c531659141344cd1fd0a4f28419497f9722a3daafe3b4186f6b6457e060405160405180910390a35050565b8173ffffffffffffffffffffffffffffffffffffffff168373ffffffffffffffffffffffffffffffffffffffff161415611cfa576040517f08c379a0000000000000000000000000000000000000000000000000000000008152600401611cf1906136df565b60405180910390fd5b80600560008573ffffffffffffffffffffffffffffffffffffffff1673ffffffffffffffffffffffffffffffffffffffff16815260200190815260200160002060008473ffffffffffffffffffffffffffffffffffffffff1673ffffffffffffffffffffffffffffffffffffffff16815260200190815260200160002060006101000a81548160ff0219169083151502179055508173ffffffffffffffffffffffffffffffffffffffff168373ffffffffffffffffffffffffffffffffffffffff167f17307eab39ab6107e8899845ad3d59bd9653f200f220920489ca2b5937696c3183604051611deb9190613554565b60405180910390a3505050565b611e038484846118e0565b611e0f848484846121b1565b611e4e576040517f08c379a0000000000000000000000000000000000000000000000000000000008152600401611e459061363f565b60405180910390fd5b50505050565b6060600082511415611e7757604051806020016040528060008152509050611fee565b60006040518060600160405280604081526020016142746040913990506000600360028551611ea69190613981565b611eb091906139d7565b6004611ebc9190613a08565b90506000602082611ecd9190613981565b67ffffffffffffffff811115611f0c577f4e487b7100000000000000000000000000000000000000000000000000000000600052604160045260246000fd5b6040519080825280601f01601f191660200182016040528015611f3e5781602001600182028036833780820191505090505b509050818152600183018586518101602084015b81831015611fad576003830192508251603f8160121c168501518253600182019150603f81600c1c168501518253600182019150603f8160061c168501518253600182019150603f8116850151825360018201915050611f52565b600389510660018114611fc75760028114611fd757611fe2565b613d3d60f01b6002830352611fe2565b603d60f81b60018303525b50505050508093505050505b919050565b60007f80ac58cd000000000000000000000000000000000000000000000000000000007bffffffffffffffffffffffffffffffffffffffffffffffffffffffff1916827bffffffffffffffffffffffffffffffffffffffffffffffffffffffff191614806120be57507f5b5e139f000000000000000000000000000000000000000000000000000000007bffffffffffffffffffffffffffffffffffffffffffffffffffffffff1916827bffffffffffffffffffffffffffffffffffffffffffffffffffffffff1916145b806120ce57506120cd82612348565b5b9050919050565b60008073ffffffffffffffffffffffffffffffffffffffff166002600084815260200190815260200160002060009054906101000a900473ffffffffffffffffffffffffffffffffffffffff1673ffffffffffffffffffffffffffffffffffffffff1614159050919050565b61214b83836123b2565b61215860008484846121b1565b612197576040517f08c379a000000000000000000000000000000000000000000000000000000000815260040161218e9061363f565b60405180910390fd5b505050565b6121a783838361258c565b505050565b505050565b60006121d28473ffffffffffffffffffffffffffffffffffffffff166126a0565b1561233b578373ffffffffffffffffffffffffffffffffffffffff1663150b7a026121fb61144e565b8786866040518563ffffffff1660e01b815260040161221d9493929190613508565b602060405180830381600087803b15801561223757600080fd5b505af192505050801561226857506040513d601f19601f820116820180604052508101906122659190613019565b60015b6122eb573d8060008114612298576040519150601f19603f3d011682016040523d82523d6000602084013e61229d565b606091505b506000815114156122e3576040517f08c379a00000000000000000000000000000000000000000000000000000000081526004016122da9061363f565b60405180910390fd5b805181602001fd5b63150b7a0260e01b7bffffffffffffffffffffffffffffffffffffffffffffffffffffffff1916817bffffffffffffffffffffffffffffffffffffffffffffffffffffffff191614915050612340565b600190505b949350505050565b60007f01ffc9a7000000000000000000000000000000000000000000000000000000007bffffffffffffffffffffffffffffffffffffffffffffffffffffffff1916827bffffffffffffffffffffffffffffffffffffffffffffffffffffffff1916149050919050565b600073ffffffffffffffffffffffffffffffffffffffff168273ffffffffffffffffffffffffffffffffffffffff161415612422576040517f08c379a00000000000000000000000000000000000000000000000000000000081526004016124199061373f565b60405180910390fd5b61242b816120d5565b1561246b576040517f08c379a00000000000000000000000000000000000000000000000000000000081526004016124629061369f565b60405180910390fd5b6124776000838361219c565b6001600360008473ffffffffffffffffffffffffffffffffffffffff1673ffffffffffffffffffffffffffffffffffffffff16815260200190815260200160002060008282546124c79190613981565b92505081905550816002600083815260200190815260200160002060006101000a81548173ffffffffffffffffffffffffffffffffffffffff021916908373ffffffffffffffffffffffffffffffffffffffff160217905550808273ffffffffffffffffffffffffffffffffffffffff16600073ffffffffffffffffffffffffffffffffffffffff167fddf252ad1be2c89b69c2b068fc378daa952ba7f163c4a11628f55a4df523b3ef60405160405180910390a4612588600083836121ac565b5050565b6125978383836126c3565b600073ffffffffffffffffffffffffffffffffffffffff168373ffffffffffffffffffffffffffffffffffffffff1614156125da576125d5816126c8565b612619565b8173ffffffffffffffffffffffffffffffffffffffff168373ffffffffffffffffffffffffffffffffffffffff1614612618576126178382612711565b5b5b600073ffffffffffffffffffffffffffffffffffffffff168273ffffffffffffffffffffffffffffffffffffffff16141561265c576126578161287e565b61269b565b8273ffffffffffffffffffffffffffffffffffffffff168273ffffffffffffffffffffffffffffffffffffffff161461269a5761269982826129c1565b5b5b505050565b6000808273ffffffffffffffffffffffffffffffffffffffff163b119050919050565b505050565b6008805490506009600083815260200190815260200160002081905550600881908060018154018082558091505060019003906000526020600020016000909190919091505550565b6000600161271e84610e89565b6127289190613a62565b905060006007600084815260200190815260200160002054905081811461280d576000600660008673ffffffffffffffffffffffffffffffffffffffff1673ffffffffffffffffffffffffffffffffffffffff168152602001908152602001600020600084815260200190815260200160002054905080600660008773ffffffffffffffffffffffffffffffffffffffff1673ffffffffffffffffffffffffffffffffffffffff168152602001908152602001600020600084815260200190815260200160002081905550816007600083815260200190815260200160002081905550505b6007600084815260200190815260200160002060009055600660008573ffffffffffffffffffffffffffffffffffffffff1673ffffffffffffffffffffffffffffffffffffffff16815260200190815260200160002060008381526020019081526020016000206000905550505050565b600060016008805490506128929190613a62565b90506000600960008481526020019081526020016000205490506000600883815481106128e8577f4e487b7100000000000000000000000000000000000000000000000000000000600052603260045260246000fd5b906000526020600020015490508060088381548110612930577f4e487b7100000000000000000000000000000000000000000000000000000000600052603260045260246000fd5b9060005260206000200181905550816009600083815260200190815260200160002081905550600960008581526020019081526020016000206000905560088054806129a5577f4e487b7100000000000000000000000000000000000000000000000000000000600052603160045260246000fd5b6001900381819060005260206000200160009055905550505050565b60006129cc83610e89565b905081600660008573ffffffffffffffffffffffffffffffffffffffff1673ffffffffffffffffffffffffffffffffffffffff168152602001908152602001600020600083815260200190815260200160002081905550806007600084815260200190815260200160002081905550505050565b828054612a4c90613b8d565b90600052602060002090601f016020900481019282612a6e5760008555612ab5565b82601f10612a8757805160ff1916838001178555612ab5565b82800160010185558215612ab5579182015b82811115612ab4578251825591602001919060010190612a99565b5b509050612ac29190612ac6565b5090565b5b80821115612adf576000816000905550600101612ac7565b5090565b6000612af6612af184613884565b61385f565b90508083825260208201905082856020860282011115612b1557600080fd5b60005b85811015612b455781612b2b8882612cb5565b845260208401935060208301925050600181019050612b18565b5050509392505050565b6000612b62612b5d846138b0565b61385f565b90508083825260208201905082856020860282011115612b8157600080fd5b60005b85811015612bb15781612b978882612d5d565b845260208401935060208301925050600181019050612b84565b5050509392505050565b6000612bce612bc9846138dc565b61385f565b905082815260208101848484011115612be657600080fd5b612bf1848285613b21565b509392505050565b6000612c0c612c078461390d565b61385f565b905082815260208101848484011115612c2457600080fd5b612c2f848285613b21565b509392505050565b600081359050612c46816141e9565b92915050565b600082601f830112612c5d57600080fd5b8135612c6d848260208601612ae3565b91505092915050565b600082601f830112612c8757600080fd5b8135612c97848260208601612b4f565b91505092915050565b600081359050612caf81614200565b92915050565b600081359050612cc481614217565b92915050565b600081359050612cd98161422e565b92915050565b600081519050612cee8161422e565b92915050565b600082601f830112612d0557600080fd5b8135612d15848260208601612bbb565b91505092915050565b600082601f830112612d2f57600080fd5b8135612d3f848260208601612bf9565b91505092915050565b600081359050612d5781614245565b92915050565b600081359050612d6c8161425c565b92915050565b600060208284031215612d8457600080fd5b6000612d9284828501612c37565b91505092915050565b60008060408385031215612dae57600080fd5b6000612dbc85828601612c37565b9250506020612dcd85828601612c37565b9150509250929050565b600080600060608486031215612dec57600080fd5b6000612dfa86828701612c37565b9350506020612e0b86828701612c37565b9250506040612e1c86828701612d48565b9150509250925092565b60008060008060808587031215612e3c57600080fd5b6000612e4a87828801612c37565b9450506020612e5b87828801612c37565b9350506040612e6c87828801612d48565b925050606085013567ffffffffffffffff811115612e8957600080fd5b612e9587828801612cf4565b91505092959194509250565b60008060408385031215612eb457600080fd5b6000612ec285828601612c37565b9250506020612ed385828601612ca0565b9150509250929050565b60008060408385031215612ef057600080fd5b6000612efe85828601612c37565b9250506020612f0f85828601612d48565b9150509250929050565b600080600080600060a08688031215612f3157600080fd5b600086013567ffffffffffffffff811115612f4b57600080fd5b612f5788828901612c76565b955050602086013567ffffffffffffffff811115612f7457600080fd5b612f8088828901612c4c565b945050604086013567ffffffffffffffff811115612f9d57600080fd5b612fa988828901612c4c565b935050606086013567ffffffffffffffff811115612fc657600080fd5b612fd288828901612d1e565b9250506080612fe388828901612d48565b9150509295509295909350565b60006020828403121561300257600080fd5b600061301084828501612cca565b91505092915050565b60006020828403121561302b57600080fd5b600061303984828501612cdf565b91505092915050565b60006020828403121561305457600080fd5b600061306284828501612d48565b91505092915050565b61307481613a96565b82525050565b61308381613aa8565b82525050565b61309281613ab4565b82525050565b6130a96130a482613ab4565b613c39565b82525050565b60006130ba8261393e565b6130c48185613954565b93506130d4818560208601613b30565b6130dd81613cff565b840191505092915050565b60006130f382613949565b6130fd8185613965565b935061310d818560208601613b30565b61311681613cff565b840191505092915050565b600061312c82613949565b6131368185613976565b9350613146818560208601613b30565b80840191505092915050565b600061315f602083613965565b915061316a82613d10565b602082019050919050565b6000613182600983613976565b915061318d82613d39565b600982019050919050565b60006131a5602b83613965565b91506131b082613d62565b604082019050919050565b60006131c8603283613965565b91506131d382613db1565b604082019050919050565b60006131eb602683613965565b91506131f682613e00565b604082019050919050565b600061320e602583613965565b915061321982613e4f565b604082019050919050565b6000613231601c83613965565b915061323c82613e9e565b602082019050919050565b6000613254600283613976565b915061325f82613ec7565b600282019050919050565b6000613277602483613965565b915061328282613ef0565b604082019050919050565b600061329a601983613965565b91506132a582613f3f565b602082019050919050565b60006132bd602983613965565b91506132c882613f68565b604082019050919050565b60006132e0600283613976565b91506132eb82613fb7565b600282019050919050565b6000613303603e83613965565b915061330e82613fe0565b604082019050919050565b6000613326602083613965565b91506133318261402f565b602082019050919050565b6000613349600d83613976565b915061335482614058565b600d82019050919050565b600061336c602083613965565b915061337782614081565b602082019050919050565b600061338f601883613965565b915061339a826140aa565b602082019050919050565b60006133b2602183613965565b91506133bd826140d3565b604082019050919050565b60006133d5601d83613976565b91506133e082614122565b601d82019050919050565b60006133f8602c83613965565b91506134038261414b565b604082019050919050565b600061341b602e83613965565b91506134268261419a565b604082019050919050565b61343a81613b0a565b82525050565b61344981613b14565b82525050565b600061345a82613175565b91506134668285613121565b91506134718261333c565b915061347d8284613121565b9150613488826132d3565b91508190509392505050565b600061349f82613247565b91506134ab8285613098565b6020820191506134bb8284613098565b6020820191508190509392505050565b60006134d6826133c8565b91506134e28284613121565b915081905092915050565b6000602082019050613502600083018461306b565b92915050565b600060808201905061351d600083018761306b565b61352a602083018661306b565b6135376040830185613431565b818103606083015261354981846130af565b905095945050505050565b6000602082019050613569600083018461307a565b92915050565b60006040820190506135846000830185613089565b6135916020830184613431565b9392505050565b60006080820190506135ad6000830187613089565b6135ba6020830186613440565b6135c76040830185613089565b6135d46060830184613089565b95945050505050565b600060208201905081810360008301526135f781846130e8565b905092915050565b6000602082019050818103600083015261361881613152565b9050919050565b6000602082019050818103600083015261363881613198565b9050919050565b60006020820190508181036000830152613658816131bb565b9050919050565b60006020820190508181036000830152613678816131de565b9050919050565b6000602082019050818103600083015261369881613201565b9050919050565b600060208201905081810360008301526136b881613224565b9050919050565b600060208201905081810360008301526136d88161326a565b9050919050565b600060208201905081810360008301526136f88161328d565b9050919050565b60006020820190508181036000830152613718816132b0565b9050919050565b60006020820190508181036000830152613738816132f6565b9050919050565b6000602082019050818103600083015261375881613319565b9050919050565b600060208201905081810360008301526137788161335f565b9050919050565b6000602082019050818103600083015261379881613382565b9050919050565b600060208201905081810360008301526137b8816133a5565b9050919050565b600060208201905081810360008301526137d8816133eb565b9050919050565b600060208201905081810360008301526137f88161340e565b9050919050565b60006020820190506138146000830184613431565b92915050565b600060608201905061382f6000830186613431565b818103602083015261384181856130e8565b9050818103604083015261385581846130e8565b9050949350505050565b600061386961387a565b90506138758282613bbf565b919050565b6000604051905090565b600067ffffffffffffffff82111561389f5761389e613cd0565b5b602082029050602081019050919050565b600067ffffffffffffffff8211156138cb576138ca613cd0565b5b602082029050602081019050919050565b600067ffffffffffffffff8211156138f7576138f6613cd0565b5b61390082613cff565b9050602081019050919050565b600067ffffffffffffffff82111561392857613927613cd0565b5b61393182613cff565b9050602081019050919050565b600081519050919050565b600081519050919050565b600082825260208201905092915050565b600082825260208201905092915050565b600081905092915050565b600061398c82613b0a565b915061399783613b0a565b9250827fffffffffffffffffffffffffffffffffffffffffffffffffffffffffffffffff038211156139cc576139cb613c43565b5b828201905092915050565b60006139e282613b0a565b91506139ed83613b0a565b9250826139fd576139fc613c72565b5b828204905092915050565b6000613a1382613b0a565b9150613a1e83613b0a565b9250817fffffffffffffffffffffffffffffffffffffffffffffffffffffffffffffffff0483118215151615613a5757613a56613c43565b5b828202905092915050565b6000613a6d82613b0a565b9150613a7883613b0a565b925082821015613a8b57613a8a613c43565b5b828203905092915050565b6000613aa182613aea565b9050919050565b60008115159050919050565b6000819050919050565b60007fffffffff0000000000000000000000000000000000000000000000000000000082169050919050565b600073ffffffffffffffffffffffffffffffffffffffff82169050919050565b6000819050919050565b600060ff82169050919050565b82818337600083830152505050565b60005b83811015613b4e578082015181840152602081019050613b33565b83811115613b5d576000848401525b50505050565b6000613b6e82613b0a565b91506000821415613b8257613b81613c43565b5b600182039050919050565b60006002820490506001821680613ba557607f821691505b60208210811415613bb957613bb8613ca1565b5b50919050565b613bc882613cff565b810181811067ffffffffffffffff82111715613be757613be6613cd0565b5b80604052505050565b6000613bfb82613b0a565b91507fffffffffffffffffffffffffffffffffffffffffffffffffffffffffffffffff821415613c2e57613c2d613c43565b5b600182019050919050565b6000819050919050565b7f4e487b7100000000000000000000000000000000000000000000000000000000600052601160045260246000fd5b7f4e487b7100000000000000000000000000000000000000000000000000000000600052601260045260246000fd5b7f4e487b7100000000000000000000000000000000000000000000000000000000600052602260045260246000fd5b7f4e487b7100000000000000000000000000000000000000000000000000000000600052604160045260246000fd5b6000601f19601f8301169050919050565b7f537472696e67733a20686578206c656e67746820696e73756666696369656e74600082015250565b7f7b226e616d65223a220000000000000000000000000000000000000000000000600082015250565b7f455243373231456e756d657261626c653a206f776e657220696e646578206f7560008201527f74206f6620626f756e6473000000000000000000000000000000000000000000602082015250565b7f4552433732313a207472616e7366657220746f206e6f6e20455243373231526560008201527f63656976657220696d706c656d656e7465720000000000000000000000000000602082015250565b7f4f776e61626c653a206e6577206f776e657220697320746865207a65726f206160008201527f6464726573730000000000000000000000000000000000000000000000000000602082015250565b7f4552433732313a207472616e736665722066726f6d20696e636f72726563742060008201527f6f776e6572000000000000000000000000000000000000000000000000000000602082015250565b7f4552433732313a20746f6b656e20616c7265616479206d696e74656400000000600082015250565b7f1901000000000000000000000000000000000000000000000000000000000000600082015250565b7f4552433732313a207472616e7366657220746f20746865207a65726f2061646460008201527f7265737300000000000000000000000000000000000000000000000000000000602082015250565b7f4552433732313a20617070726f766520746f2063616c6c657200000000000000600082015250565b7f4552433732313a2061646472657373207a65726f206973206e6f74206120766160008201527f6c6964206f776e65720000000000000000000000000000000000000000000000602082015250565b7f227d000000000000000000000000000000000000000000000000000000000000600082015250565b7f4552433732313a20617070726f76652063616c6c6572206973206e6f7420746f60008201527f6b656e206f776e6572206e6f7220617070726f76656420666f7220616c6c0000602082015250565b7f4552433732313a206d696e7420746f20746865207a65726f2061646472657373600082015250565b7f222c2022696d616765223a202200000000000000000000000000000000000000600082015250565b7f4f776e61626c653a2063616c6c6572206973206e6f7420746865206f776e6572600082015250565b7f4552433732313a20696e76616c696420746f6b656e2049440000000000000000600082015250565b7f4552433732313a20617070726f76616c20746f2063757272656e74206f776e6560008201527f7200000000000000000000000000000000000000000000000000000000000000602082015250565b7f646174613a6170706c69636174696f6e2f6a736f6e3b6261736536342c000000600082015250565b7f455243373231456e756d657261626c653a20676c6f62616c20696e646578206f60008201527f7574206f6620626f756e64730000000000000000000000000000000000000000602082015250565b7f4552433732313a2063616c6c6572206973206e6f7420746f6b656e206f776e6560008201527f72206e6f7220617070726f766564000000000000000000000000000000000000602082015250565b6141f281613a96565b81146141fd57600080fd5b50565b61420981613aa8565b811461421457600080fd5b50565b61422081613ab4565b811461422b57600080fd5b50565b61423781613abe565b811461424257600080fd5b50565b61424e81613b0a565b811461425957600080fd5b50565b61426581613b14565b811461427057600080fd5b5056fe4142434445464748494a4b4c4d4e4f505152535455565758595a6162636465666768696a6b6c6d6e6f707172737475767778797a303132333435363738392b2fa2646970667358221220a9055f5eeb9b41b13aa49ff3897e77295ae4740371e48361a5f91b2684502d9f64736f6c63430008040033",
  "linkReferences": {},
  "deployedLinkReferences": {}
}